:1000000000308A003A280000831A0A289000030E64
:1000100091000F2883129000030E910091140A089A
:1000200097008A018313900E040892000C08930035
:100030000D0894000E0895000F08960083120B1E01
:1000400023288B1836281208840013088C00140803
:100050008D0015088E0016088F0017088A00110EF3
:1000600083008312100E911883160900850A8B10E5
:100070008A11232803081F39830085010030831665
:10008000850001308600011783120B168B17472855
:0200900063000B
:02400E00F33F7E
:00000001FF
;PIC16F84A
;CRC=0CAA  CREATED="02-mar-17 19:21"
